{
  "_format": "hh-sol-artifact-1",
  "contractName": "ContributionPool",
  "sourceName": "contracts/ContributionPool.sol",
  "abi": [
    {
      "inputs": [
        {
          "internalType": "contract ConfidentialFungibleToken",
          "name": "_token",
          "type": "address"
        }
      ],
      "stateMutability": "nonpayable",
      "type": "constructor"
    },
    {
      "inputs": [],
      "name": "HandlesAlreadySavedForRequestID",
      "type": "error"
    },
    {
      "inputs": [],
      "name": "InvalidKMSSignatures",
      "type": "error"
    },
    {
      "inputs": [],
      "name": "NoHandleFoundForRequestID",
      "type": "error"
    },
    {
      "inputs": [
        {
          "internalType": "address",
          "name": "owner",
          "type": "address"
        }
      ],
      "name": "OwnableInvalidOwner",
      "type": "error"
    },
    {
      "inputs": [
        {
          "internalType": "address",
          "name": "account",
          "type": "address"
        }
      ],
      "name": "OwnableUnauthorizedAccount",
      "type": "error"
    },
    {
      "inputs": [
        {
          "internalType": "bytes",
          "name": "reason",
          "type": "bytes"
        }
      ],
      "name": "PoolTokenTransferFailed",
      "type": "error"
    },
    {
      "anonymous": false,
      "inputs": [
        {
          "indexed": true,
          "internalType": "uint256",
          "name": "poolId",
          "type": "uint256"
        },
        {
          "indexed": true,
          "internalType": "address",
          "name": "contributor",
          "type": "address"
        },
        {
          "indexed": false,
          "internalType": "string",
          "name": "giftSuggestion",
          "type": "string"
        }
      ],
      "name": "ContributionMade",
      "type": "event"
    },
    {
      "anonymous": false,
      "inputs": [
        {
          "indexed": true,
          "internalType": "uint256",
          "name": "requestID",
          "type": "uint256"
        }
      ],
      "name": "DecryptionFulfilled",
      "type": "event"
    },
    {
      "anonymous": false,
      "inputs": [
        {
          "indexed": true,
          "internalType": "address",
          "name": "previousOwner",
          "type": "address"
        },
        {
          "indexed": true,
          "internalType": "address",
          "name": "newOwner",
          "type": "address"
        }
      ],
      "name": "OwnershipTransferred",
      "type": "event"
    },
    {
      "anonymous": false,
      "inputs": [
        {
          "indexed": true,
          "internalType": "uint256",
          "name": "poolId",
          "type": "uint256"
        },
        {
          "indexed": true,
          "internalType": "address",
          "name": "creator",
          "type": "address"
        },
        {
          "indexed": false,
          "internalType": "string",
          "name": "name",
          "type": "string"
        },
        {
          "indexed": true,
          "internalType": "address",
          "name": "recipient",
          "type": "address"
        },
        {
          "indexed": false,
          "internalType": "uint256",
          "name": "minContributors",
          "type": "uint256"
        },
        {
          "indexed": false,
          "internalType": "string",
          "name": "giftSuggestion",
          "type": "string"
        }
      ],
      "name": "PoolCreated",
      "type": "event"
    },
    {
      "anonymous": false,
      "inputs": [
        {
          "indexed": true,
          "internalType": "uint256",
          "name": "poolId",
          "type": "uint256"
        },
        {
          "indexed": true,
          "internalType": "address",
          "name": "creator",
          "type": "address"
        },
        {
          "indexed": true,
          "internalType": "address",
          "name": "recipient",
          "type": "address"
        },
        {
          "indexed": false,
          "internalType": "bytes32",
          "name": "encryptedTotalHandle",
          "type": "bytes32"
        }
      ],
      "name": "PoolFinalizeRequested",
      "type": "event"
    },
    {
      "anonymous": false,
      "inputs": [
        {
          "indexed": true,
          "internalType": "uint256",
          "name": "poolId",
          "type": "uint256"
        },
        {
          "indexed": true,
          "internalType": "address",
          "name": "creator",
          "type": "address"
        },
        {
          "indexed": true,
          "internalType": "address",
          "name": "recipient",
          "type": "address"
        },
        {
          "indexed": false,
          "internalType": "uint256",
          "name": "totalPlain",
          "type": "uint256"
        }
      ],
      "name": "PoolFinalized",
      "type": "event"
    },
    {
      "inputs": [
        {
          "internalType": "uint256",
          "name": "requestId",
          "type": "uint256"
        },
        {
          "internalType": "bytes",
          "name": "cleartexts",
          "type": "bytes"
        },
        {
          "internalType": "bytes",
          "name": "decryptionProof",
          "type": "bytes"
        }
      ],
      "name": "_callbackRevealTotal",
      "outputs": [],
      "stateMutability": "nonpayable",
      "type": "function"
    },
    {
      "inputs": [
        {
          "internalType": "uint256",
          "name": "poolId",
          "type": "uint256"
        },
        {
          "internalType": "externalEuint64",
          "name": "encryptedAmount",
          "type": "bytes32"
        },
        {
          "internalType": "bytes",
          "name": "inputProof",
          "type": "bytes"
        },
        {
          "internalType": "string",
          "name": "giftSuggestion_",
          "type": "string"
        }
      ],
      "name": "contribute",
      "outputs": [],
      "stateMutability": "nonpayable",
      "type": "function"
    },
    {
      "inputs": [
        {
          "internalType": "string",
          "name": "name_",
          "type": "string"
        },
        {
          "internalType": "address",
          "name": "recipient_",
          "type": "address"
        },
        {
          "internalType": "uint256",
          "name": "minContributors_",
          "type": "uint256"
        },
        {
          "internalType": "string",
          "name": "giftSuggestion_",
          "type": "string"
        },
        {
          "internalType": "externalEuint64",
          "name": "encryptedContribution",
          "type": "bytes32"
        },
        {
          "internalType": "bytes",
          "name": "contributionProof",
          "type": "bytes"
        }
      ],
      "name": "createPool",
      "outputs": [
        {
          "internalType": "uint256",
          "name": "poolId",
          "type": "uint256"
        }
      ],
      "stateMutability": "nonpayable",
      "type": "function"
    },
    {
      "inputs": [
        {
          "internalType": "uint256",
          "name": "poolId",
          "type": "uint256"
        }
      ],
      "name": "finalize",
      "outputs": [],
      "stateMutability": "nonpayable",
      "type": "function"
    },
    {
      "inputs": [
        {
          "internalType": "uint256",
          "name": "poolId",
          "type": "uint256"
        }
      ],
      "name": "getPool",
      "outputs": [
        {
          "internalType": "string",
          "name": "name",
          "type": "string"
        },
        {
          "internalType": "address",
          "name": "creator",
          "type": "address"
        },
        {
          "internalType": "address",
          "name": "recipient",
          "type": "address"
        },
        {
          "internalType": "uint256",
          "name": "totalPlain",
          "type": "uint256"
        },
        {
          "internalType": "uint256",
          "name": "minContributors",
          "type": "uint256"
        },
        {
          "internalType": "string",
          "name": "giftSuggestion",
          "type": "string"
        },
        {
          "internalType": "uint256",
          "name": "contributorCount",
          "type": "uint256"
        },
        {
          "internalType": "bool",
          "name": "finalized",
          "type": "bool"
        }
      ],
      "stateMutability": "view",
      "type": "function"
    },
    {
      "inputs": [
        {
          "internalType": "uint256",
          "name": "",
          "type": "uint256"
        },
        {
          "internalType": "address",
          "name": "",
          "type": "address"
        }
      ],
      "name": "hasContributed",
      "outputs": [
        {
          "internalType": "bool",
          "name": "",
          "type": "bool"
        }
      ],
      "stateMutability": "view",
      "type": "function"
    },
    {
      "inputs": [],
      "name": "nextPoolId",
      "outputs": [
        {
          "internalType": "uint256",
          "name": "",
          "type": "uint256"
        }
      ],
      "stateMutability": "view",
      "type": "function"
    },
    {
      "inputs": [],
      "name": "owner",
      "outputs": [
        {
          "internalType": "address",
          "name": "",
          "type": "address"
        }
      ],
      "stateMutability": "view",
      "type": "function"
    },
    {
      "inputs": [
        {
          "internalType": "uint256",
          "name": "",
          "type": "uint256"
        }
      ],
      "name": "poolTotalHandle",
      "outputs": [
        {
          "internalType": "bytes32",
          "name": "",
          "type": "bytes32"
        }
      ],
      "stateMutability": "view",
      "type": "function"
    },
    {
      "inputs": [
        {
          "internalType": "uint256",
          "name": "",
          "type": "uint256"
        }
      ],
      "name": "pools",
      "outputs": [
        {
          "internalType": "string",
          "name": "name",
          "type": "string"
        },
        {
          "internalType": "address",
          "name": "creator",
          "type": "address"
        },
        {
          "internalType": "address",
          "name": "recipient",
          "type": "address"
        },
        {
          "internalType": "euint64",
          "name": "totalEnc",
          "type": "bytes32"
        },
        {
          "internalType": "uint256",
          "name": "totalPlain",
          "type": "uint256"
        },
        {
          "internalType": "uint256",
          "name": "minContributors",
          "type": "uint256"
        },
        {
          "internalType": "string",
          "name": "latestGiftSuggestion",
          "type": "string"
        },
        {
          "internalType": "uint256",
          "name": "contributorCount",
          "type": "uint256"
        },
        {
          "internalType": "bool",
          "name": "finalized",
          "type": "bool"
        }
      ],
      "stateMutability": "view",
      "type": "function"
    },
    {
      "inputs": [],
      "name": "protocolId",
      "outputs": [
        {
          "internalType": "uint256",
          "name": "",
          "type": "uint256"
        }
      ],
      "stateMutability": "pure",
      "type": "function"
    },
    {
      "inputs": [],
      "name": "renounceOwnership",
      "outputs": [],
      "stateMutability": "nonpayable",
      "type": "function"
    },
    {
      "inputs": [],
      "name": "token",
      "outputs": [
        {
          "internalType": "contract ConfidentialFungibleToken",
          "name": "",
          "type": "address"
        }
      ],
      "stateMutability": "view",
      "type": "function"
    },
    {
      "inputs": [
        {
          "internalType": "address",
          "name": "newOwner",
          "type": "address"
        }
      ],
      "name": "transferOwnership",
      "outputs": [],
      "stateMutability": "nonpayable",
      "type": "function"
    }
  ],
  "bytecode": "0x60a060405234801561000f575f5ffd5b5060405161269e38038061269e83398101604081905261002e91610282565b338061005457604051631e4fbdf760e01b81525f60048201526024015b60405180910390fd5b61005d81610233565b506101d86100fc604080516080810182525f808252602082018190529181018290526060810191909152506040805160808101825273687820221192c5b662b25367f70076a37bc79b6c815273848b0066793bcc60346da1f49049357399b8d595602082015273a02cda4ca3a71d7c46997716f4283aa851c2881291810191909152731364cbbf2cdf5032c47d8226a6f6fbd2afcdacac606082015290565b80517f9e7b61f58c47dc699ac88507c4f5bb9f121c03808c5676a8078fe583e464970080546001600160a01b03199081166001600160a01b039384161790915560208301517f9e7b61f58c47dc699ac88507c4f5bb9f121c03808c5676a8078fe583e46497018054831691841691909117905560408301517f9e7b61f58c47dc699ac88507c4f5bb9f121c03808c5676a8078fe583e46497028054831691841691909117905560608301517f9e7b61f58c47dc699ac88507c4f5bb9f121c03808c5676a8078fe583e46497038054909216921691909117905550565b6001600160a01b03811661021e5760405162461bcd60e51b815260206004820152600d60248201526c24b73b30b634b2103a37b5b2b760991b604482015260640161004b565b6001600160a01b0316608052600180556102af565b5f80546001600160a01b038381166001600160a01b0319831681178455604051919092169283917f8be0079c531659141344cd1fd0a4f28419497f9722a3daafe3b4186f6b6457e09190a35050565b5f60208284031215610292575f5ffd5b81516001600160a01b03811681146102a8575f5ffd5b9392505050565b6080516123b46102ea5f395f818161024e015281816103fb0152818161044f01528181610f620152818161108101526110d601526123b45ff3fe608060405234801561000f575f5ffd5b50600436106100e5575f3560e01c806395820bb011610088578063d503ed8611610063578063d503ed861461020f578063da1f12ab1461022e578063f2fde38b14610236578063fc0c546a14610249575f5ffd5b806395820bb014610197578063ac4afa38146101aa578063b5b96ae0146101d2575f5ffd5b8063230b3041116100c3578063230b304114610145578063715018a614610158578063878af6b1146101605780638da5cb5b14610173575f5ffd5b806305261aea146100e9578063068bcd8d146100fe57806318e561311461012e575b5f5ffd5b6100fc6100f7366004611b1b565b610270565b005b61011161010c366004611b1b565b61063b565b604051610125989796959493929190611b60565b60405180910390f35b61013760015481565b604051908152602001610125565b6100fc610153366004611c12565b610828565b6100fc610957565b61013761016e366004611caf565b61096a565b5f546001600160a01b03165b6040516001600160a01b039091168152602001610125565b6100fc6101a5366004611e12565b610c47565b6101bd6101b8366004611b1b565b610d40565b60405161012599989796959493929190611e7f565b6101ff6101e0366004611ef4565b600460209081525f928352604080842090915290825290205460ff1681565b6040519015158152602001610125565b61013761021d366004611b1b565b60036020525f908152604090205481565b612711610137565b6100fc610244366004611f1e565b610eaa565b61017f7f000000000000000000000000000000000000000000000000000000000000000081565b5f81815260026020526040902060018101546001600160a01b03166102cd5760405162461bcd60e51b815260206004820152600e60248201526d141bdbdb081b9bdd08199bdd5b9960921b60448201526064015b60405180910390fd5b600881015460ff16156103225760405162461bcd60e51b815260206004820152601160248201527f416c72656164792066696e616c697a656400000000000000000000000000000060448201526064016102c4565b60018101546001600160a01b0316331461037e5760405162461bcd60e51b815260206004820152601e60248201527f4f6e6c7920706f6f6c2063726561746f722063616e2066696e616c697a65000060448201526064016102c4565b8060050154816007015410156103d65760405162461bcd60e51b815260206004820152601760248201527f4e6f7420656e6f75676820636f6e7472696275746f727300000000000000000060448201526064016102c4565b60088101805460ff1916600117905560038101546103f381610ee7565b905061041f817f0000000000000000000000000000000000000000000000000000000000000000610ef6565b6002830154604051632df5f6bf60e11b81526001600160a01b039182166004820152602481018390529192505f917f000000000000000000000000000000000000000000000000000000000000000090911690635bebed7e906044016020604051808303815f875af19250505080156104b5575060408051601f3d908101601f191682019092526104b291810190611f37565b60015b610503573d8080156104e2576040519150601f19603f3d011682016040523d82523d5f602084013e6104e7565b606091505b5080604051630bcc6d8b60e41b81526004016102c49190611f4e565b905061050e81610ee7565b905061051981610f0a565b6040805160018082528183019092529192505f91906020808301908036833701905050905081815f8151811061055157610551611f60565b60209081029190910101525f61056e8263095820bb60e41b610f14565b5f8181526005602052604081208890558351919250839161059157610591611f60565b602002602001015160035f8881526020019081526020015f20819055506105bf6105ba5f610f27565b610ee7565b60038601556002850154600186015483516001600160a01b03928316929091169088907f2ca5e131a56be5ce17f722a7c2abcaee1bc67d5ad5c34c06b0111a20baf82c5e9086905f9061061457610614611f60565b602002602001015160405161062b91815260200190565b60405180910390a4505050505050565b60605f5f5f5f60605f5f5f60025f8b81526020019081526020015f20604051806101200160405290815f8201805461067290611f74565b80601f016020809104026020016040519081016040528092919081815260200182805461069e90611f74565b80156106e95780601f106106c0576101008083540402835291602001916106e9565b820191905f5260205f20905b8154815290600101906020018083116106cc57829003601f168201915b505050918352505060018201546001600160a01b03908116602083015260028301541660408201526003820154606082015260048201546080820152600582015460a082015260068201805460c09092019161074490611f74565b80601f016020809104026020016040519081016040528092919081815260200182805461077090611f74565b80156107bb5780601f10610792576101008083540402835291602001916107bb565b820191905f5260205f20905b81548152906001019060200180831161079e57829003601f168201915b5050509183525050600782015460208083019190915260089092015460ff16151560409182015282519183015190830151608084015160a085015160c086015160e08701516101009790970151959f50939d50919b50995097509550909350915050919395975091939597565b5f86815260026020526040902060018101546001600160a01b03166108805760405162461bcd60e51b815260206004820152600e60248201526d141bdbdb081b9bdd08199bdd5b9960921b60448201526064016102c4565b600881015460ff16156108d55760405162461bcd60e51b815260206004820152601660248201527f506f6f6c20616c72656164792066696e616c697a65640000000000000000000060448201526064016102c4565b5f87815260046020908152604080832033845290915290205460ff161561093e5760405162461bcd60e51b815260206004820152601360248201527f416c726561647920636f6e74726962757465640000000000000000000000000060448201526064016102c4565b61094e8782338989898989610f3d565b50505050505050565b61095f611251565b6109685f61127d565b565b5f6001600160a01b0388166109c15760405162461bcd60e51b815260206004820152601160248201527f496e76616c696420726563697069656e7400000000000000000000000000000060448201526064016102c4565b5f8711610a105760405162461bcd60e51b815260206004820152601a60248201527f6d696e436f6e7472696275746f7273206d757374206265203e3000000000000060448201526064016102c4565b60018054905f610a1f83611fc0565b90915550604080516101406020601f8e01819004028201810190925261012081018c81529293509182918d908d90819085018382808284375f9201829052509385525050336020840152506001600160a01b038b166040830152606090910190610a8890610f27565b81526020015f815260200188815260200187878080601f0160208091040260200160405190810160405280939291908181526020018383808284375f92018290525093855250505060208083018290526040928301829052848252600290522081518190610af69082612024565b5060208201516001820180546001600160a01b0392831673ffffffffffffffffffffffffffffffffffffffff19918216179091556040840151600284018054919093169116179055606082015160038201556080820151600482015560a0820151600582015560c08201516006820190610b709082612024565b5060e08201516007820155610100909101516008909101805460ff19169115159190911790555f818152600260205260409020610bb38282338888888d8d610f3d565b5f82815260026020526040902060030154610bcd90610f0a565b60025f8481526020019081526020015f2060030181905550886001600160a01b0316336001600160a01b0316837f9fbcbd89d6e9df7c758537c271a8e2f66a8c96a0ad4abe2f89a304865fc4fc918e8e8d8d8d604051610c31959493929190612107565b60405180910390a4509998505050505050505050565b5f8381526005602052604081205490819003610ca55760405162461bcd60e51b815260206004820152600f60248201527f496e76616c69642072657175657374000000000000000000000000000000000060448201526064016102c4565b5f84815260056020526040812055610cbe8484846112d9565b5f83806020019051810190610cd3919061213f565b5f8381526002602081815260409283902067ffffffffffffffff8516600482018190559281015460018201549451938452949550936001600160a01b0390811693169186917f25357fbd2366bac482850d2b31c27854d4b6e3a88d63e2aee930cc709f34215d910161062b565b60026020525f9081526040902080548190610d5a90611f74565b80601f0160208091040260200160405190810160405280929190818152602001828054610d8690611f74565b8015610dd15780601f10610da857610100808354040283529160200191610dd1565b820191905f5260205f20905b815481529060010190602001808311610db457829003601f168201915b505050506001830154600284015460038501546004860154600587015460068801805497986001600160a01b03968716989690951696509294919390929091610e1990611f74565b80601f0160208091040260200160405190810160405280929190818152602001828054610e4590611f74565b8015610e905780601f10610e6757610100808354040283529160200191610e90565b820191905f5260205f20905b815481529060010190602001808311610e7357829003601f168201915b50505050600783015460089093015491929160ff16905089565b610eb2611251565b6001600160a01b038116610edb57604051631e4fbdf760e01b81525f60048201526024016102c4565b610ee48161127d565b50565b5f610ef28230611342565b5090565b5f610f018383611342565b50815b92915050565b5f610ef2826113c0565b5f610f2083835f611451565b9392505050565b5f610f048267ffffffffffffffff16600561157f565b604051635b1b1e7960e11b81526001600160a01b0387811660048301523060248301527f0000000000000000000000000000000000000000000000000000000000000000169063b6363cf290604401602060405180830381865afa158015610fa7573d5f5f3e3d5ffd5b505050506040513d601f19601f82011682018060405250810190610fcb9190612166565b6110175760405162461bcd60e51b815260206004820152601b60248201527f506f6f6c3a20636f6e7472616374206e6f74206f70657261746f72000000000060448201526064016102c4565b6110248760030154610ee7565b87600301819055505f61106e85858080601f0160208091040260200160405190810160405280939291908181526020018383808284375f920191909152508a9392505061163c9050565b905061107981610ee7565b90506110a5817f0000000000000000000000000000000000000000000000000000000000000000610ef6565b60405163eb3155b560e01b81526001600160a01b038981166004830152306024830152604482018390529192505f917f0000000000000000000000000000000000000000000000000000000000000000169063eb3155b5906064016020604051808303815f875af192505050801561113a575060408051601f3d908101601f1916820190925261113791810190611f37565b60015b611167573d8080156104e2576040519150601f19603f3d011682016040523d82523d5f602084013e6104e7565b905061117281610ee7565b90505f6111838a6003015483611649565b905061118e81610ee7565b905061119981610f0a565b9050808a6003018190555060018a6007015f8282546111b89190612185565b90915550505f8b81526004602090815260408083206001600160a01b038d1684529091529020805460ff1916600117905583156112005760068a016111fe858783612198565b505b886001600160a01b03168b7f147920f84373c299905706cbff42252967f0808a2eb5c83b41139a9627315d0e878760405161123c929190612252565b60405180910390a35050505050505050505050565b5f546001600160a01b031633146109685760405163118cdaa760e01b81523360048201526024016102c4565b5f80546001600160a01b0383811673ffffffffffffffffffffffffffffffffffffffff19831681178455604051919092169283917f8be0079c531659141344cd1fd0a4f28419497f9722a3daafe3b4186f6b6457e09190a35050565b5f6112e384611677565b90505f6112f1828585611748565b9050806113115760405163cf6c44e960e01b815260040160405180910390fd5b60405185907f1af0453083661051f6e56e5c070792320652e612154bf9af8637bb1e7655b99d905f90a25050505050565b7f9e7b61f58c47dc699ac88507c4f5bb9f121c03808c5676a8078fe583e46497008054604051635ca4b5b160e11b8152600481018590526001600160a01b0384811660248301529091169063b9496b62906044015b5f604051808303815f87803b1580156113ae575f5ffd5b505af115801561094e573d5f5f3e3d5ffd5b6040805160018082528183019092527f9e7b61f58c47dc699ac88507c4f5bb9f121c03808c5676a8078fe583e4649700915f91906020808301908036833701905050905082815f8151811061141757611417611f60565b60209081029190910101528154604051637d6e912360e11b81526001600160a01b039091169063fadd22469061139790849060040161229f565b7f878245876662ba28a480c5ea71726db859fb50222b0a3d7cbbc21cfa336faf0080547f9e7b61f58c47dc699ac88507c4f5bb9f121c03808c5676a8078fe583e46497008054604051637d6e912360e11b81529293926001600160a01b039091169063fadd2246906114c790899060040161229f565b5f604051808303815f87803b1580156114de575f5ffd5b505af11580156114f0573d5f5f3e3d5ffd5b5050506002820154604051633263b83b60e01b81526001600160a01b039091169150633263b83b90869061152c9087908b908b906004016122b1565b5f604051808303818588803b158015611543575f5ffd5b505af1158015611555573d5f5f3e3d5ffd5b50505050506115648387611834565b8154825f61157183611fc0565b919050555050509392505050565b7f9e7b61f58c47dc699ac88507c4f5bb9f121c03808c5676a8078fe583e464970154604051639cd07acb60e01b81525f917f9e7b61f58c47dc699ac88507c4f5bb9f121c03808c5676a8078fe583e4649700916001600160a01b0390911690639cd07acb906115f49087908790600401612302565b6020604051808303815f875af1158015611610573d5f5f3e3d5ffd5b505050506040513d601f19601f820116820180604052508101906116349190611f37565b949350505050565b5f610f20838360056118c7565b5f8261165b576116585f610f27565b92505b8161166c576116695f610f27565b91505b610f2083835f6119e7565b5f8181527f878245876662ba28a480c5ea71726db859fb50222b0a3d7cbbc21cfa336faf0160205260408120546060917f878245876662ba28a480c5ea71726db859fb50222b0a3d7cbbc21cfa336faf009190036116e85760405163d66ca67560e01b815260040160405180910390fd5b5f8381526001820160209081526040918290208054835181840281018401909452808452909183018282801561173b57602002820191905f5260205f20905b815481526020019060010190808311611727575b5050505050915050919050565b5f5f835160206117589190612185565b611763906020612185565b90505f8482604051602001611779929190612316565b60405160208183030381529060405290505f6117b27f9e7b61f58c47dc699ac88507c4f5bb9f121c03808c5676a8078fe583e464970090565b60038101546040516378542ead60e01b81529192506001600160a01b0316906378542ead906117e9908a9086908a90600401612330565b6020604051808303815f875af1158015611805573d5f5f3e3d5ffd5b505050506040513d601f19601f820116820180604052508101906118299190612166565b979650505050505050565b5f8281527f878245876662ba28a480c5ea71726db859fb50222b0a3d7cbbc21cfa336faf0160205260409020547f878245876662ba28a480c5ea71726db859fb50222b0a3d7cbbc21cfa336faf0090156118a157604051633f06d22b60e01b815260040160405180910390fd5b5f838152600182016020908152604090912083516118c192850190611ac7565b50505050565b7f9e7b61f58c47dc699ac88507c4f5bb9f121c03808c5676a8078fe583e46497015460405163196d0b9b60e01b81525f917f9e7b61f58c47dc699ac88507c4f5bb9f121c03808c5676a8078fe583e4649700916001600160a01b039091169063196d0b9b90611940908890339089908990600401612368565b6020604051808303815f875af115801561195c573d5f5f3e3d5ffd5b505050506040513d601f19601f820116820180604052508101906119809190611f37565b8154604051630f8e573b60e21b8152600481018390523360248201529193506001600160a01b031690633e395cec906044015f604051808303815f87803b1580156119c9575f5ffd5b505af11580156119db573d5f5f3e3d5ffd5b50505050509392505050565b5f5f82156119fa5750600160f81b6119fd565b505f5b5f7f9e7b61f58c47dc699ac88507c4f5bb9f121c03808c5676a8078fe583e4649700600181015460405163022f65e760e31b815260048101899052602481018890527fff00000000000000000000000000000000000000000000000000000000000000851660448201529192506001600160a01b03169063117b2f38906064016020604051808303815f875af1158015611a99573d5f5f3e3d5ffd5b505050506040513d601f19601f82011682018060405250810190611abd9190611f37565b9695505050505050565b828054828255905f5260205f20908101928215611b00579160200282015b82811115611b00578251825591602001919060010190611ae5565b50610ef29291505b80821115610ef2575f8155600101611b08565b5f60208284031215611b2b575f5ffd5b5035919050565b5f81518084528060208401602086015e5f602082860101526020601f19601f83011685010191505092915050565b61010081525f611b7461010083018b611b32565b6001600160a01b038a1660208401526001600160a01b038916604084015287606084015286608084015282810360a0840152611bb08187611b32565b60c0840195909552505090151560e0909101529695505050505050565b5f5f83601f840112611bdd575f5ffd5b50813567ffffffffffffffff811115611bf4575f5ffd5b602083019150836020828501011115611c0b575f5ffd5b9250929050565b5f5f5f5f5f5f60808789031215611c27575f5ffd5b8635955060208701359450604087013567ffffffffffffffff811115611c4b575f5ffd5b611c5789828a01611bcd565b909550935050606087013567ffffffffffffffff811115611c76575f5ffd5b611c8289828a01611bcd565b979a9699509497509295939492505050565b80356001600160a01b0381168114611caa575f5ffd5b919050565b5f5f5f5f5f5f5f5f5f60c08a8c031215611cc7575f5ffd5b893567ffffffffffffffff811115611cdd575f5ffd5b611ce98c828d01611bcd565b909a509850611cfc905060208b01611c94565b965060408a0135955060608a013567ffffffffffffffff811115611d1e575f5ffd5b611d2a8c828d01611bcd565b90965094505060808a0135925060a08a013567ffffffffffffffff811115611d50575f5ffd5b611d5c8c828d01611bcd565b915080935050809150509295985092959850929598565b634e487b7160e01b5f52604160045260245ffd5b5f82601f830112611d96575f5ffd5b813567ffffffffffffffff811115611db057611db0611d73565b604051601f8201601f19908116603f0116810167ffffffffffffffff81118282101715611ddf57611ddf611d73565b604052818152838201602001851015611df6575f5ffd5b816020850160208301375f918101602001919091529392505050565b5f5f5f60608486031215611e24575f5ffd5b83359250602084013567ffffffffffffffff811115611e41575f5ffd5b611e4d86828701611d87565b925050604084013567ffffffffffffffff811115611e69575f5ffd5b611e7586828701611d87565b9150509250925092565b61012081525f611e9361012083018c611b32565b6001600160a01b038b1660208401526001600160a01b038a1660408401528860608401528760808401528660a084015282810360c0840152611ed58187611b32565b60e0840195909552505090151561010090910152979650505050505050565b5f5f60408385031215611f05575f5ffd5b82359150611f1560208401611c94565b90509250929050565b5f60208284031215611f2e575f5ffd5b610f2082611c94565b5f60208284031215611f47575f5ffd5b5051919050565b602081525f610f206020830184611b32565b634e487b7160e01b5f52603260045260245ffd5b600181811c90821680611f8857607f821691505b602082108103611fa657634e487b7160e01b5f52602260045260245ffd5b50919050565b634e487b7160e01b5f52601160045260245ffd5b5f60018201611fd157611fd1611fac565b5060010190565b601f82111561201f57805f5260205f20601f840160051c81016020851015611ffd5750805b601f840160051c820191505b8181101561201c575f8155600101612009565b50505b505050565b815167ffffffffffffffff81111561203e5761203e611d73565b6120528161204c8454611f74565b84611fd8565b6020601f821160018114612084575f831561206d5750848201515b5f19600385901b1c1916600184901b17845561201c565b5f84815260208120601f198516915b828110156120b35787850151825560209485019460019092019101612093565b50848210156120d057868401515f19600387901b60f8161c191681555b50505050600190811b01905550565b81835281816020850137505f828201602090810191909152601f909101601f19169091010190565b606081525f61211a6060830187896120df565b85602084015282810360408401526121338185876120df565b98975050505050505050565b5f6020828403121561214f575f5ffd5b815167ffffffffffffffff81168114610f20575f5ffd5b5f60208284031215612176575f5ffd5b81518015158114610f20575f5ffd5b80820180821115610f0457610f04611fac565b67ffffffffffffffff8311156121b0576121b0611d73565b6121c4836121be8354611f74565b83611fd8565b5f601f8411600181146121f5575f85156121de5750838201355b5f19600387901b1c1916600186901b17835561201c565b5f83815260208120601f198716915b828110156122245786850135825560209485019460019092019101612204565b5086821015612240575f1960f88860031b161c19848701351681555b505060018560011b0183555050505050565b602081525f6116346020830184866120df565b5f8151808452602084019350602083015f5b82811015612295578151865260209586019590910190600101612277565b5093949350505050565b602081525f610f206020830184612265565b838152606060208201525f6122c96060830185612265565b905063ffffffff60e01b83166040830152949350505050565b605481106122fe57634e487b7160e01b5f52602160045260245ffd5b9052565b82815260408101610f2060208301846122e2565b5f83518060208601845e9190910191825250602001919050565b606081525f6123426060830186612265565b82810360208401526123548186611b32565b90508281036040840152611abd8185611b32565b8481526001600160a01b0384166020820152608060408201525f61238f6080830185611b32565b905061239e60608301846122e2565b9594505050505056fea164736f6c634300081b000a",
  "linkReferences": {},
  "deployedLinkReferences": {}
}